:100000000C9472000C949A000C949A000C949A0030
:100010000C949A000C949A000C949A000C949A00F8
:100020000C949A000C949A000C949A000C949A00E8
:100030000C949A000C949A000C949A000C949A00D8
:100040000C944E060C949A000C94D4010C94AE01BE
:100050000C949A000C949A000C949A000C949A00B8
:100060000C949A000C949A00005EBCE2613FDD8320
:10007000C29C7E20A3FD1F41009D23BE46DB65F888
:100080008C11AF32CA57E974000000002400270029
:100090002A0000000000250028002B0000000008B6
:1000A000000201000003040700000000000000003F
:1000B00000000000230026002900040404040404B6
:1000C0000404020202020202030303030303010207
:1000D00004081020408001020408102001020408D6
:1000E0001020E20911241FBECFEFD8E0DEBFCDBF44
:1000F00012E0A0E0B1E0EAEFF9E102C005900D9254
:10010000A438B107D9F723E0A4E8B2E001C01D92FA
:10011000AC35B207E1F710E0C2E7D0E004C02197A8
:10012000FE010E94AD0AC137D107C9F70E949806A7
:100130000C94FB0C0C940000CF92DF92EF92FF9294
:100140000F931F93CF93DF936C017A018B01C0E073
:10015000D0E0CE15DF0581F0D8016D918D01D6017B
:10016000ED91FC910190F081E02DC6010995892B5C
:1001700011F02196EECF7E01C701DF91CF911F9143
:100180000F91FF90EF90DF90CF900895089580E059
:1001900090E00895FC01538D448D252F30E0842F8D
:1001A00090E0821B930B541710F0CF96089501979F
:1001B0000895FC01918D828D981761F0828DDF0189
:1001C000A80FB11D5D968C91928D9F5F9F73928F4A
:1001D00090E008958FEF9FEF0895FC01918D828D3F
:1001E000981731F0828DE80FF11D858D90E008950C
:1001F0008FEF9FEF0895FC01918D228D892F90E064
:10020000805C9F4F821B91098F739927089586E91F
:1002100092E00E94FB0021E0892B09F420E0822F6C
:100220000895FC01848DDF01A80FB11DA35ABF4FB3
:100230002C91848D90E001968F739927848FA689E5
:10024000B7892C93A089B1898C91837080648C9339
:10025000938D848D981306C00288F389E02D8081E8
:100260008F7D80830895EF92FF920F931F93CF931A
:10027000DF93EC0181E0888F9B8D8C8D981305C0F6
:10028000E889F989808185FD26C0F62E0B8D10E066
:100290000F5F1F4F0F731127E02E8C8DE8120CC0DB
:1002A0000FB607FCFACFE889F989808185FFF5CF81
:1002B000CE010E941101F1CF8B8DFE01E80FF11DDF
:1002C000E35AFF4FF0829FB7F8940B8FEA89FB89BE
:1002D000808180620AC09FB7F894EE89FF896083AD
:1002E000E889F98980818370806480839FBF81E081
:1002F00090E0DF91CF911F910F91FF90EF900895C3
:10030000CF93DF93EC01888D8823C9F0EA89FB89BC
:10031000808185FD05C0A889B9898C9186FD0FC0B3
:100320000FB607FCF5CF808185FFF2CFA889B98988
:100330008C9185FFEDCFCE010E941101E7CFDF91B7
:10034000CF91089580E090E0892B29F00E94070169
:1003500081110C94000008950E94F60C1F920F92D8
:100360000FB60F9211242F933F934F935F936F9388
:100370007F938F939F93AF93BF93EF93FF9386E900
:1003800092E00E941101FF91EF91BF91AF919F9177
:100390008F917F916F915F914F913F912F910F902E
:1003A0000FBE0F901F9018951F920F920FB60F92CD
:1003B00011242F938F939F93EF93FF93E091A602C5
:1003C000F091A7028081E091AC02F091AD0282FD34
:1003D00012C090818091AF028F5F8F732091B00225
:1003E000821751F0E091AF02F0E0EA56FD4F958F91
:1003F0008093AF0201C08081FF91EF919F918F9117
:100400002F910F900FBE0F901F901895DC0180E088
:10041000615098F02D91982F9227E92FEF70F0E01E
:10042000E859FF4F249192959F70E92FF0E0E8582A
:10043000FF4FE491822F8E27EBCF0895FC0190812E
:100440000180F281E02DF8948181892B81832281C2
:10045000892F809528232283A7E0B0E01197F1F738
:10046000218182238183A3E2B0E01197F1F780819B
:100470007894EFECF0E03197F1F7982381E009F4FC
:1004800080E00895FC0190810180F281E02D892FA8
:10049000809560FF12C0F89422818223828381813B
:1004A000892B8183A3E2B0E01197F1F78281982B29
:1004B0009283789487ED90E011C0F8942281822392
:1004C00082838181892B8183AFEFB0E01197F1F7AF
:1004D0008281982B928378948FE090E00197F1F7D6
:1004E0000895DF92EF92FF920F931F93CF93DF93C4
:1004F000EC01D62EE42E08E010E0FF24F39461E036
:100500008D2D8F2109F460E0CE010E944202FF0C84
:1005100001501109A1F7E11010C0F894E981FA81A6
:1005200091818881809589238183E981FA819281F3
:1005300088818095892382837894DF91CF911F9160
:100540000F91FF90EF90DF900895EF92FF920F933D
:100550001F93CF93DF938C017B0140E065E50E9400
:100560007102E70188E0E80EF11C699140E0C801E2
:100570000E947102CE15DF05C1F7DF91CF911F9167
:100580000F91FF90EF900895DC012C911196ED9161
:10059000FC911297F8948181922F90958923818301
:1005A00078948DE743E050E0815021F1DA01119712
:1005B000F1F730813223C1F3F89482818923828359
:1005C0008181822B81837894ABE7B7E01197F1F7B3
:1005D000F89481819823918383E191E00197F1F769
:1005E0008081282381E009F080E07894E3E6F6E05A
:1005F0003197F1F708953FB7F89480914A039091AD
:100600004B03A0914C03B0914D0326B5A89B05C0A8
:100610002F3F19F00196A11DB11D3FBFBA2FA92F81
:10062000982F8827820F911DA11DB11DBC01CD01FE
:1006300042E0660F771F881F991F4A95D1F70895EA
:10064000009769F0FC0101900020E9F73197AF01B4
:10065000481B590BBC0186E992E00C949C0080E099
:1006600090E00895CF93DF930E942003EC0185E78B
:1006700092E00E9420038C0F9D1FDF91CF9108957F
:100680006F927F928F929F92AF92BF92CF92DF92A2
:10069000EF92FF920F931F93CF93DF938C01EB01A7
:1006A00080913B0390913C030E94C402882309F48B
:1006B00047C0B80180913B0390913C030E94A50282
:1006C00040E06EEB80913B0390913C030E947102ED
:1006D0008E016E0189E0C80ED11C7E01A0903B0303
:1006E000B0903C0388E0882E912C712C6624639492
:1006F000C5010E941E0281117628660CE1E08E1A67
:100700009108B1F7F70171927F01CE16DF0631F73C
:1007100080913B0390913C030E94C402813081F49C
:10072000F80181918F01811104C0EC15FD05C1F71D
:1007300007C068E0CE010E94060291E028852813D8
:1007400090E0892FDF91CF911F910F91FF90EF9053
:10075000DF90CF90BF90AF909F908F907F906F90E1
:100760000895CF93DF93CDB7DEB729970FB6F894EE
:10077000DEBF0FBECDBFBE016F5F7F4F0E94400343
:10078000882389F08D818F3361F020F48F3159F403
:1007900089E00CC08F3519F08F3739F004C08BE039
:1007A00005C08AE003C080E001C08CE029960FB646
:1007B000F894DEBF0FBECDBFDF91CF910895BF92F9
:1007C000CF92DF92EF92FF920F931F93CF93DF931D
:1007D000EC016B018D85811105C0CE010E94C40220
:1007E000811105C01B861D861C8680E060C040E02C
:1007F00060EFCE010E94710201E0E12CB12C11E00A
:10080000CE010E941E02F82ECE010E941E0291E02F
:10081000F91203C08130B1F434C02E2D30E0F8124B
:100820001BC08B85181738F4FE01E20FF31F83817C
:10083000802341F402C0811729F0F12C193058F4BB
:100840001C8709C0FE01EE0DF11D8381802B83837F
:10085000FF24F39409C0B12EFE01E20FF31F938130
:10086000802F8095892383836F2DCE010E944202C1
:100870001F5F000F11F4E39401E087E08E1508F08C
:10088000BFCF113408F4AECFBB86B11002C081E0F7
:100890008D878B81882309F4A5CFDE011396F6019D
:1008A0002B968D918193CA17DB07D9F781E0DF91F1
:1008B000CF911F910F91FF90EF90DF90CF90BF905D
:1008C00008958F929F92AF92BF920F931F93CF93F1
:1008D000DF93CDB7DEB7A1970FB6F894DEBF0FBE9A
:1008E000CDBF19A2423008F44AE08E010F5D1F4FC0
:1008F000842E912CA12CB12CA50194010E94770A81
:10090000E62FB901CA0101501109EA3014F4E05D83
:1009100001C0E95CD801EC93232B242B252B61F734
:10092000C8010E942003A1960FB6F894DEBF0FBE47
:10093000CDBFDF91CF911F910F91BF90AF909F904E
:100940008F9008958F929F92AF92BF92CF92DF9235
:10095000EF92FF920F931F93CF93DF936B017C0174
:10096000142F9B01AC010E94F10C882319F088E739
:1009700092E027C046015701E894B7F82FEF3FEF08
:100980004FE75FE7C501B4010E94F10C81110DC072
:100990002FEF3FEF4FE75FE7C501B4010E94200B47
:1009A00018161CF48CE792E00CC02FEF3FEF4FE7D6
:1009B0005FE4C701B6010E947F0C181684F480E83A
:1009C00092E0DF91CF911F910F91FF90EF90DF9018
:1009D000CF90BF90AF909F908F900C9420032FEFFB
:1009E0003FEF4FE75FECC701B6010E94200B87FD88
:1009F000E6CF20E030E0A901C701B6010E94200B3C
:100A000087FF0BC06DE286E992E00E943301EC01A2
:100A1000F7FAF094F7F8F09402C0C0E0D0E000E0FC
:100A200060E070E080E09FE3101741F020E030E0EC
:100A300040E251E40E94250B0F5FF6CFA70196011B
:100A40000E94B40A6B017C010E949E0B4B015C0169
:100A50004AE00E946104C80FD91F1123B9F1C501F2
:100A6000B4010E94CD0B9B01AC01C701B6010E94ED
:100A7000B30A6B017C016EE286E992E00E943301C9
:100A8000C80FD91F20E030E040E251E4C701B601B1
:100A90000E94840C4B015C010E949E0B6B01E12CB7
:100AA000F12C4AE0C701B6010E946104C80FD91FAA
:100AB000C701B6010E94CD0B9B01AC01C501B40179
:100AC0000E94B30A6B017C011150E1F6CE01DF9167
:100AD000CF911F910F91FF90EF90DF90CF90BF903B
:100AE000AF909F908F90089590E0FC01E456FF4FE7
:100AF0002491FC01E253FF4F3491FC01E654FF4F77
:100B0000E491EE2309F43CC0222339F1233091F023
:100B100038F42130A9F0223001F584B58F7D12C060
:100B2000273091F02830A1F02430B9F48091800072
:100B30008F7D03C0809180008F77809380000DC0EF
:100B400084B58F7784BD09C08091B0008F7703C0D2
:100B50008091B0008F7D8093B000F0E0EE0FFF1F1A
:100B6000EE56FF4FA591B4919FB7F894611104C060
:100B70008C913095382302C0EC913E2B3C939FBF63
:100B80000895CF93DF9390E0FC01E253FF4F24914F
:100B9000FC01E654FF4F8491882361F190E0880FB7
:100BA000991FFC01E857FF4FC591D491FC01EE5607
:100BB000FF4FA591B491611109C09FB7F894888146
:100BC000209582238883EC912E230BC0623061F440
:100BD0009FB7F8948881322F309583238883EC91D6
:100BE0002E2B2C939FBF06C08FB7F894E8812E2B35
:100BF00028838FBFDF91CF9108958E3008F08E50FB
:100C00008770806480937C0080917A0080648093F8
:100C10007A0080917A0086FDFCCF80917800209147
:100C2000790090E0922B08958F929F92AF92BF929D
:100C3000CF92DF92EF92FF926B017C010E94FB0248
:100C40004B015C01C114D104E104F104F1F00E94F4
:100C5000FB02DC01CB0188199909AA09BB09883E6E
:100C60009340A105B10570F321E0C21AD108E10853
:100C7000F10888EE880E83E0981EA11CB11CC114F7
:100C8000D104E104F10419F7DDCFFF90EF90DF907C
:100C9000CF90BF90AF909F908F9008951F920F922A
:100CA0000FB60F9211242F933F938F939F93AF937F
:100CB000BF938091920290919302A0919402B0917F
:100CC00095023091490323E0230F2D3720F401963C
:100CD000A11DB11D05C026E8230F0296A11DB11D5F
:100CE000209349038093920290939302A0939402DD
:100CF000B093950280914A0390914B03A0914C03CD
:100D0000B0914D030196A11DB11D80934A039093AC
:100D10004B03A0934C03B0934D03BF91AF919F91B0
:100D20008F913F912F910F900FBE0F901F901895AC
:100D3000CF93DF93CDB7DEB761970FB6F894DEBFE0
:100D40000FBECDBF789484B5826084BD84B58160C8
:100D500084BD85B5826085BD85B5816085BD809186
:100D60006E00816080936E001092810080918100FE
:100D700082608093810080918100816080938100F6
:100D8000809180008160809380008091B1008460B8
:100D90008093B1008091B00081608093B000809119
:100DA0007A00846080937A0080917A0082608093D8
:100DB0007A0080917A00816080937A0080917A0035
:100DC000806880937A001092C100E091A602F091B1
:100DD000A70282E08083E091A202F091A302108238
:100DE000E091A402F091A5028FEC80831092AE02F4
:100DF000E091AA02F091AB0286E08083E091A80224
:100E0000F091A902808180618083E091A802F09135
:100E1000A902808188608083E091A802F091A902F4
:100E2000808180688083E091A802F091A90280818E
:100E30008F7D808361E089E00E94C10560E089E0E8
:100E40000E94740561E08AE00E94C10561E08AE0C9
:100E50000E94740560E08FE00E94C10561E081E1BD
:100E60000E94C10561E080E10E94C10560E080E16F
:100E70000E94740564E670E080E090E00E94140631
:100E8000E0913B03F0913C03138615861486DF0145
:100E90001B9633961E92EA17FB07E1F7109239036F
:100EA00010923A0301E0BE016F5F7F4F80913B03D8
:100EB00090913C030E94DF03882309F465C067E03A
:100EC000CE0101960E94060298858913ECCF80918D
:100ED0003303811127C080913B0390913C030E9412
:100EE000C402BE016F5F7F4F80913B0390913C0332
:100EF0000E94A50240E064EB80913B0390913C038B
:100F00000E94710280913B0390913C030E941E025B
:100F1000182F80913B0390913C030E94C40211233F
:100F200009F4F2C0109136038981803109F4F6C1C9
:100F3000CE0101960E94B103811718F48091360307
:100F400009C08981803111F48CE004C0CE01019682
:100F50000E94B10380933603809139038F5F8093A1
:100F600039038981883209F4D2C038F4803109F418
:100F7000CEC0823209F097CFCAC08B3309F4C7C004
:100F8000823409F090CFC3C064E670E080E090E066
:100F90000E9414068091000190910101499690935E
:100FA0000101809300018EE191E00E94320382E40E
:100FB00091E00E94320383E791E00E94320387E7C9
:100FC00092E00E94320386EB91E00E94320387E7B1
:100FD00092E00E94320381E092E00E94320380910D
:100FE0003B0390913C030E94C40240E06CEC809172
:100FF0003B0390913C030E9471024091330364E4EF
:1010000080913B0390913C030E94710280913703D1
:10101000882309F459C0E0913603E950E33040F4E5
:10102000F0E0EE0FFF1FEA5FFE4F8081918102C06A
:101030008EEE92E06C01990FEE08FF088091380364
:10104000882361F180913303811128C08FB7F89410
:101050008090920290909302A0909402B09095029A
:101060008FBF80913B0390913C030E941E02813010
:1010700059F12FB7F8948091920290919302A09128
:101080009402B09195022FBF88199909AA09BB094A
:101090008C159D05AE05BF0520F316C08091340365
:1010A000882329F060E0809135030E947405C70110
:1010B000B6010E94140680913403882329F061E070
:1010C000809135030E947405E0913B03F0913C034D
:1010D000138615861486DF011B96CF0103961E9298
:1010E000A817B907E1F7BE01665F7F4FCF010E94E5
:1010F000DF03882391F067E0CE010A960E94060282
:10110000998989130AC00EC1009333030BCF8091D4
:101110003A038F5F80933A03C6CEC12CD12C8EEF59
:10112000E82E82ECF82EC0920201D0920301E092E8
:101130000401F092050161E081E10E9474058FE0F5
:101140000E94FD058FE00E94FD05BC01990F880BF0
:10115000990B0E94CF0B4B015C016093840270934A
:101160008502809386029093870260E081E10E946D
:10117000740520E030E040EA50E4C501B4010E946B
:10118000840C20E030E040E85AE30E94840C4B01DC
:101190005C016091000170910101072E000C880B29
:1011A000990B0E94CF0BA50194010E94840C2B0186
:1011B0003C01A501940160E070E080EA90E40E94A7
:1011C000B30A9B01AC01C301B2010E94250B20E0D0
:1011D00030E048EC51E40E94B30A60938E027093B1
:1011E0008F0280939002909391022CEE31E548E3B8
:1011F00050E40E94840C9B01AC0160E070E08AE73F
:1012000094E40E94250B4B015C0120E030E048ECA7
:1012100051E4C701B6010E94B30A23EE35EA4BE957
:101220005CE30E94840C20E030E040E85FE30E9431
:10123000B40A9B01AC01C501B4010E94250B609367
:101240008A0270938B0280938C0290938D0220E02F
:1012500030E04FE254E40E94840C0E94970B70939C
:1012600089026093880284E592E00E9420036091E5
:101270008E0270918F02809190029091910242E0D3
:101280000E94A20489E592E00E94200360918A02F4
:1012900070918B0280918C0290918D0242E00E94AD
:1012A000A2048FE592E00E942003C0908802D090B3
:1012B00089020D2C000CEE08FF08F7FE0EC06DE24F
:1012C00086E992E00E94330166277727CB016C19EB
:1012D0007D098E099F094AE003C04AE0C701B601B3
:1012E0000E94610489E692E00E942003609102015D
:1012F00070910301809104019091050142E00E94E8
:10130000A20480E792E00E94320368E873E180E083
:1013100090E00E9414060E94A20161CE1D3008F0E8
:101320000DCE12CEBE016F5F7F4FCE010A960E9496
:101330004003882309F443C02A8130E0C901982F73
:101340008827990F990F990F698128E0629FB00152
:1013500011249C01262B372B8A858031D9F468858E
:101360006623C1F070E08F81AB01481B5109CA01AF
:101370009695982F8827979587950E94630A6052C3
:101380007109207F53E0220F331F5A95E1F7620F56
:10139000731F01C0B901613854EE75070CF4BDCE5E
:1013A000072E000C880B990B0E94CF0B20E030E039
:1013B00040E05CE30E94840C6B017C01B4CE60E8E9
:1013C00074EEE9CF109299021092980288EE93E0A1
:1013D000A0E0B0E080939A0290939B02A0939C02BD
:1013E000B0939D0280E191E09093970280939602E2
:1013F00085EC90E09093A3028093A20284EC90E0AD
:101400009093A5028093A40280EC90E09093A702B1
:101410008093A60281EC90E09093A9028093A802A9
:1014200082EC90E09093AB028093AA0286EC90E06D
:101430009093AD028093AC021092AF021092B00272
:101440001092B1021092B20260E088E00E94C105E1
:10145000E6EDF0E0E491E0934E03E2ECF0E0E4919D
:10146000F0E0EE0FFF1FE055FF4F859194919093B0
:10147000500380934F031092590310925B03109214
:101480005A03E9E5F3E0129283E0E135F807D9F772
:101490008EE493E090933C0380933B0310923903D6
:1014A00010923A031092330389E08093360381E06F
:1014B00080933703809338031092480310924703B8
:1014C00010923403089597FB072E16F4009407D06A
:1014D00077FD09D00E94990A07FC05D03EF490954B
:1014E00081959F4F0895709561957F4F0895A1E272
:1014F0001A2EAA1BBB1BFD010DC0AA1FBB1FEE1F8E
:10150000FF1FA217B307E407F50720F0A21BB30BD8
:10151000E40BF50B661F771F881F991F1A9469F754
:1015200060957095809590959B01AC01BD01CF01B0
:101530000895AA1BBB1B51E107C0AA1FBB1FA6171A
:10154000B70710F0A61BB70B881F991F5A95A9F76C
:1015500080959095BC01CD010895EE0FFF1F059079
:10156000F491E02D09945058BB27AA270E94CB0A7A
:101570000C94450C0E94370C38F00E943E0C20F071
:1015800039F49F3F19F426F40C94340C0EF4E095D2
:10159000E7FB0C942E0CE92F0E94560C58F3BA1757
:1015A000620773078407950720F079F4A6F50C9479
:1015B000780C0EF4E0950B2EBA2FA02D0B01B9017B
:1015C00090010C01CA01A0011124FF27591B99F0B9
:1015D000593F50F4503E68F11A16F040A22F232FC5
:1015E000342F4427585FF3CF469537952795A79515
:1015F000F0405395C9F77EF41F16BA0B620B730BBC
:10160000840BBAF09150A1F0FF0FBB1F661F771F2C
:10161000881FC2F70EC0BA0F621F731F841F48F4E1
:10162000879577956795B795F7959E3F08F0B0CF6A
:101630009395880F08F09927EE0F97958795089551
:101640000E940A0C08F481E008950E94390B0C9462
:10165000450C0E943E0C58F00E94370C40F029F4D3
:101660005F3F29F00C942E0C51110C94790C0C94C2
:10167000340C0E94560C68F39923B1F3552391F36F
:10168000951B550BBB27AA2762177307840738F0F1
:101690009F5F5F4F220F331F441FAA1FA9F335D04E
:1016A0000E2E3AF0E0E832D091505040E695001C02
:1016B000CAF72BD0FE2F29D0660F771F881FBB1FBC
:1016C000261737074807AB07B0E809F0BB0B802D9A
:1016D000BF01FF2793585F4F3AF09E3F510578F0C6
:1016E0000C942E0C0C94790C5F3FE4F3983ED4F3E9
:1016F000869577956795B795F7959F5FC9F7880F9A
:10170000911D9695879597F90895E1E0660F771FEB
:10171000881FBB1F621773078407BA0720F0621B7C
:10172000730B840BBA0BEE1F88F7E09508950E94A7
:101730009E0B6894B1110C94790C08950E945E0C74
:1017400088F09F5798F0B92F9927B751B0F0E1F082
:10175000660F771F881F991F1AF0BA95C9F714C032
:10176000B13091F00E94780CB1E008950C94780C9F
:10177000672F782F8827B85F39F0B93FCCF386956B
:1017800077956795B395D9F73EF4909580957095C8
:1017900061957F4F8F4F9F4F0895E89409C097FB45
:1017A0003EF490958095709561957F4F8F4F9F4F38
:1017B0009923A9F0F92F96E9BB279395F69587957C
:1017C00077956795B795F111F8CFFAF4BB0F11F43F
:1017D00060FF1BC06F5F7F4F8F4F9F4F16C08823E6
:1017E00011F096E911C0772321F09EE8872F762F1C
:1017F00005C0662371F096E8862F70E060E02AF05D
:101800009A95660F771F881FDAF7880F9695879548
:1018100097F90895990F0008550FAA0BE0E8FEEF1D
:1018200016161706E807F907C0F012161306E407A4
:10183000F50798F0621B730B840B950B39F40A269D
:1018400061F0232B242B252B21F408950A2609F47B
:10185000A140A6958FEF811D811D089597F99F677F
:1018600080E870E060E008959FEF80EC0895002428
:101870000A941616170618060906089500240A94F5
:1018800012161306140605060895092E0394000C7B
:1018900011F4882352F0BB0F40F4BF2B11F460FF0A
:1018A00004C06F5F7F4F8F4F9F4F089557FD905833
:1018B000440F551F59F05F3F71F04795880F97FB14
:1018C000991F61F09F3F79F08795089512161306CE
:1018D0001406551FF2CF4695F1DF08C016161706FD
:1018E0001806991FF1CF8695710561050894089532
:1018F000E894BB2766277727CB0197F908950E94C4
:101900000A0C08F48FEF08950E94970C0C94450C74
:101910000E94370C38F00E943E0C20F0952311F005
:101920000C942E0C0C94340C11240C94790C0E9401
:10193000560C70F3959FC1F3950F50E0551F629FB1
:10194000F001729FBB27F00DB11D639FAA27F00D18
:10195000B11DAA1F649F6627B00DA11D661F829F3F
:101960002227B00DA11D621F739FB00DA11D621F24
:10197000839FA00D611D221F749F3327A00D611D41
:10198000231F849F600D211D822F762F6A2F112423
:101990009F5750409AF0F1F088234AF0EE0FFF1F56
:1019A000BB1F661F771F881F91505040A9F79E3FAD
:1019B000510580F00C942E0C0C94790C5F3FE4F3ED
:1019C000983ED4F3869577956795B795F795E79503
:1019D0009F5FC1F7FE2B880F911D9695879597F90C
:1019E00008950E940A0C880B990B089581E090E0FD
:0A19F000F8940C94FB0CF894FFCF60
:1019FA00E803000020415E00BC00770100000000FF
:101A0A0033019C00CA008001FB00D900ED00456C3F
:101A1A0043686561706F2041726475696E6F204515
:101A2A00432D50504D206D65617375726D656E74EE
:101A3A00730042793A204D69636861656C2052618E
:101A4A0074636C6966666520204D696B65404D69F3
:101A5A00636861656C526174636C696666652E635E
:101A6A006F6D004672656520736F66747761726583
:101A7A003A20796F752063616E20726564697374A8
:101A8A0072696275746520697420616E642F6F7261
:101A9A00206D6F6469667920697420756E64657259
:101AAA0020474E5520004D616B6520737572652085
:101ABA0050726F626520616E642054656D702053A8
:101ACA00656E736F722061726520696E20536F6C48
:101ADA007574696F6E20616E6420736F6C757469BA
:101AEA006F6E2069732077656C6C206D6978656408
:101AFA00004D65617375726D656E74732061742033
:101B0A00352773205365636F6E6420696E7465723E
:101B1A0076616C73205B446F6E7420726561642019
:101B2A004563206D6F7265207468616E206F6E6305
:101B3A00652065766572792035207365636F6E64FA
:101B4A00735D3A0052633A20002045433A20002050
:101B5A0053696D656E732020002070706D2020001F
:101B6A00202A4320000D0A006E616E00696E66002D
:041B7A006F7666001C
:00000001FF
