:100000000C9473000C949B000C949B000C941803AC
:100010000C9418030C9418030C949B000C949B00F4
:100020000C949B000C949B000C949B000C949B00E4
:100030000C949B000C949B000C949B000C949B00D4
:100040000C9476020C949B000C94E6020C94C00273
:100050000C949B000C949B000C949B000C949B00B4
:100060000C949B000C949B00005EBCE2613FDD831E
:10007000C29C7E20A3FD1F41009D23BE46DB65F888
:100080008C11AF32CA57E974000000002400270029
:100090002A0000000008000201000003040700001D
:1000A00000000000000000000000250028002B00D8
:1000B00000000000230026002900040404040404B6
:1000C0000404020202020202030303030303010207
:1000D00004081020408001020408102001020408D6
:1000E0001020730A4B0A11241FBECFEFD8E0DEBFE9
:1000F000CDBF22E0ACE3B1E001C01D92A838B20749
:10010000E1F711E0A0E0B1E0E0EBFFE102C0059013
:100110000D92AC33B107D9F710E0C2E7D0E004C0CC
:100120002197FE010E94EA0CC137D107C9F70E944E
:10013000CA070C94CB0F0C940000CF92DF92EF9281
:10014000FF920F931F93CF93DF936C017A018B0182
:10015000C0E0D0E0CE15DF0581F0D8016D918D01B2
:10016000D601ED91FC910190F081E02DC601099539
:10017000892B11F02196EECF7E01C701DF91CF913F
:100180001F910F91FF90EF90DF90CF900895FC01A9
:10019000538D448D252F30E0842F90E0821B930BEC
:1001A000541710F0CF96089501970895FC01918D92
:1001B000828D981761F0828DDF01A80FB11D5D96C9
:1001C0008C91928D9F5F9F73928F90E008958FEF37
:1001D0009FEF0895FC01918D828D981731F0828DEB
:1001E000E80FF11D858D90E008958FEF9FEF089542
:1001F000FC01918D228D892F90E0805C9F4F821BA6
:1002000091098F739927089588E991E00E94F80079
:1002100021E0892B09F420E0822F0895FC01848DD0
:10022000DF01A80FB11DA35ABF4F2C91848D90E020
:1002300001968F739927848FA689B7892C93A089FB
:10024000B1898C91837080648C93938D848D981385
:1002500006C00288F389E02D80818F7D8083089518
:10026000EF92FF920F931F93CF93DF93EC0181E006
:10027000888F9B8D8C8D981305C0E889F9898081C2
:1002800085FD26C0F62E0B8D10E00F5F1F4F0F73FC
:100290001127E02E8C8DE8120CC00FB607FCFACFA8
:1002A000E889F989808185FFF5CFCE010E940E0192
:1002B000F1CF8B8DFE01E80FF11DE35AFF4FF08265
:1002C0009FB7F8940B8FEA89FB89808180620AC00E
:1002D0009FB7F894EE89FF896083E889F989808166
:1002E0008370806480839FBF81E090E0DF91CF9135
:1002F0001F910F91FF90EF900895CF93DF93EC0142
:10030000888D8823C9F0EA89FB89808185FD05C035
:10031000A889B9898C9186FD0FC00FB607FCF5CF6F
:10032000808185FFF2CFA889B9898C9185FFEDCFB7
:10033000CE010E940E01E7CFDF91CF91089580E0BA
:1003400090E0892B29F00E94040181110C94000097
:10035000089520917E0130917F012817390771F4AB
:1003600090917D0180917C01981741F0E0917D0191
:10037000F0E0E45CFE4F808190E008958FEF9FEF06
:10038000089508951F93CF93DF93DC015C968D91C0
:100390009C915D97009739F421E030E013963C93EF
:1003A0002E9312973BC05196ED91FC915297509627
:1003B0002C915097322F30951FB75E964C915E97D7
:1003C000742F727041FD6095F8944081772311F08D
:1003D000422B01C043234083EC012197F1F748E011
:1003E000508160FF02C0522B01C053235083EC01A7
:1003F0002197F1F76695415099F78081772319F09D
:100400008323808302C0282B20831FBF5C968D919D
:100410009C915D970197F1F781E090E0DF91CF919A
:100420001F91089520917E0130917F01281739078F
:1004300071F480917C0120917D0190E0805C9F4F60
:10044000821B910960E470E00E94C20C089580E074
:1004500090E0089520917E0130917F01281739079F
:10046000B9F490917D0180917C01981789F0E09119
:100470007D01F0E0E45CFE4F808120917D0130E061
:100480002F5F3F4F2F73332720937D0190E0089516
:100490008FEF9FEF0895089580E090E008950E9407
:1004A000B60F3FB7F8948091900190919101A0917F
:1004B0009201B091930126B5A89B05C02F3F19F07A
:1004C0000196A11DB11D3FBFBA2FA92F982F8827D4
:1004D000820F911DA11DB11DBC01CD0142E0660F2F
:1004E000771F881F991F4A95D1F708951F920F9281
:1004F0000FB60F9211242F933F938F939F93AF9337
:10050000BF938091940190919501A0919601B09133
:10051000970130918F0123E0230F2D3720F40196AE
:10052000A11DB11D05C026E8230F0296A11DB11D16
:1005300020938F018093940190939501A09396014D
:10054000B09397018091900190919101A0919201B7
:10055000B09193010196A11DB11D809390019093DC
:100560009101A0939201B0939301BF91AF919F919C
:100570008F913F912F910F900FBE0F901F90189564
:100580001F920F920FB60F9211242F933F934F9308
:100590005F936F937F938F939F93AF93BF93EF93EB
:1005A000FF9388E991E00E940E01FF91EF91BF91C6
:1005B000AF919F918F917F916F915F914F913F91FB
:1005C0002F910F900FBE0F901F9018951F920F92B2
:1005D0000FB60F9211242F938F939F93EF93FF9356
:1005E000E091A801F091A9018081E091AE01F09124
:1005F000AF0182FD12C090818091B1018F5F8F7336
:100600002091B201821751F0E091B101F0E0E8567B
:10061000FE4F958F8093B10101C08081FF91EF91D2
:100620009F918F912F910F900FBE0F901F90189553
:100630001F920F920FB60F9211242F933F934F9357
:100640005F936F937F938F939F93AF93BF93EF933A
:10065000FF93E0917E01F0917F01309709F451C042
:10066000968DA685B785858591FF04C09C918923C9
:1006700029F447C09C91892309F043C0A389B48918
:100680009C918589809589238C9386899789019788
:10069000F1F7608D718DA685B785558538E020E02E
:1006A000CB010197F1F7822F90E095958795282F40
:1006B0004C91452309F02068315091F7868D81FDDA
:1006C000209580917C0190E001968F73992730915D
:1006D0007D01381749F0A0917C01B0E0A45CBE4FC9
:1006E0002C9380937C0103C0868D8160868F828DE0
:1006F000938D0197F1F7A389B4899C918589892B02
:100700008C93FF91EF91BF91AF919F918F917F91CA
:100710006F915F914F913F912F910F900FBE0F906E
:100720001F901895DC0180E0615098F02D91982F72
:100730009227E92FEF70F0E0E859FF4F249192954E
:100740009F70E92FF0E0E858FF4FE491822F8E2749
:10075000EBCF0895FC0190810180F281E02DF894A7
:100760008181892B81832281892F8095282322836F
:10077000A7E0B0E01197F1F7218182238183A3E202
:10078000B0E01197F1F780817894EFECF0E03197C9
:10079000F1F7982381E009F480E00895FC0190814D
:1007A0000180F281E02D892F809560FF12C0F894BE
:1007B0002281822382838181892B8183A3E2B0E01D
:1007C0001197F1F78281982B9283789487ED90E0CE
:1007D00011C0F8942281822382838181892B8183B5
:1007E000AFEFB0E01197F1F78281982B9283789464
:1007F0008FE090E00197F1F70895DF92EF92FF927A
:100800000F931F93CF93DF93EC01D62EE42E08E0D5
:1008100010E0FF24F39461E08D2D8F2109F460E056
:10082000CE010E94CE03FF0C01501109A1F7E11087
:1008300010C0F894E981FA8191818881809589239B
:100840008183E981FA8192818881809589238283DD
:100850007894DF91CF911F910F91FF90EF90DF90EF
:100860000895EF92FF920F931F93CF93DF938C0124
:100870007B0140E065E50E94FD03E70188E0E80EAA
:10088000F11C699140E0C8010E94FD03CE15DF050F
:10089000C1F7DF91CF911F910F91FF90EF900895D5
:1008A000DC012C911196ED91FC911297F8948181C5
:1008B000922F90958923818378948DE743E050E0CF
:1008C000815021F1DA011197F1F730813223C1F320
:1008D000F8948281892382838181822B8183789419
:1008E000ABE7B7E01197F1F7F894818198239183F2
:1008F00083E191E00197F1F78081282381E009F0FD
:1009000080E07894E3E6F6E03197F1F70895CF932D
:10091000DF93EC01198218821B821A821D821C82CD
:1009200061E070E080E090E00E94F00E009759F0E6
:10093000998388831B821A822C813D81232B91F419
:10094000FC0110820FC088819981009711F00E94EC
:10095000670E198218821D821C821B821A82DF9107
:10096000CF9108951D821C826AE371E0888199818C
:10097000DF91CF910C94C40F6F927F928F929F92D0
:10098000AF92BF92CF92DF92EF92FF920F931F939D
:10099000CF93DF938C01EB01809168029091690203
:1009A0000E945004882309F447C0B801809168026E
:1009B000909169020E94310440E06EEB80916802E0
:1009C000909169020E94FD038E016E0189E0C80EBC
:1009D000D11C7E01A0906802B090690288E0882E48
:1009E000912C712C66246394C5010E94AA03811185
:1009F0007628660CE1E08E1A9108B1F7F701719242
:100A00007F01CE16DF0631F780916802909169026E
:100A10000E945004813081F4F80181918F0181118D
:100A200004C0EC15FD05C1F707C068E0CE010E94C7
:100A3000920391E02885281390E0892FDF91CF91D0
:100A40001F910F91FF90EF90DF90CF90BF90AF90EC
:100A50009F908F907F906F900895CF93DF93CDB745
:100A6000DEB729970FB6F894DEBF0FBECDBFBE012B
:100A70006F5F7F4F0E94BC04882389F08D818F3384
:100A800061F020F48F3159F489E00CC08F3519F0F2
:100A90008F3739F004C08BE005C08AE003C080E0E6
:100AA00001C08CE029960FB6F894DEBF0FBECDBF13
:100AB000DF91CF910895BF92CF92DF92EF92FF9294
:100AC0000F931F93CF93DF93EC016B018D85811101
:100AD00005C0CE010E945004811105C01B861D86F1
:100AE0001C8680E060C040E060EFCE010E94FD0304
:100AF00001E0E12CB12C11E0CE010E94AA03F82EF6
:100B0000CE010E94AA0391E0F91203C08130B1F432
:100B100034C02E2D30E0F8121BC08B85181738F426
:100B2000FE01E20FF31F8381802341F402C081178D
:100B300029F0F12C193058F41C8709C0FE01EE0D84
:100B4000F11D8381802B8383FF24F39409C0B12E90
:100B5000FE01E20FF31F9381802F80958923838309
:100B60006F2DCE010E94CE031F5F000F11F4E3949E
:100B700001E087E08E1508F0BFCF113408F4AECF46
:100B8000BB86B11002C081E08D878B81882309F478
:100B9000A5CFDE011396F6012B968D918193CA178E
:100BA000DB07D9F781E0DF91CF911F910F91FF9083
:100BB000EF90DF90CF90BF900895CF93DF93CDB7A4
:100BC000DEB761970FB6F894DEBF0FBECDBFE091E0
:100BD0006802F0916902138615861486DF011B9660
:100BE000CF0103961E928A179B07E1F7BE01665F4D
:100BF0007F4FCF010E945B05882341F067E0CE0163
:100C00000A960E9492039989891729F060E070E0A2
:100C10008EEF92EC4EC0BE016F5F7F4FCE010A9601
:100C20000E94BC04882309F441C02A8130E0C90134
:100C3000982F8827990F990F990F698128E0629F53
:100C4000B00111249C01262B372B8A858031D9F4E1
:100C500068856623C1F070E08F81AB01481B5109A4
:100C6000CA019695982F8827979587950E94C20C60
:100C700060527109207F53E0220F331F5A95E1F72C
:100C8000620F731F01C0B901613854EE75070CF48F
:100C9000BDCF072E000C880B990B0E946E0B20E035
:100CA00030E040E05CE30E94CD0B03C060E874EEEE
:100CB000EBCF61960FB6F894DEBF0FBECDBFDF91CC
:100CC000CF91089590E0FC01EE56FF4F2491FC0176
:100CD000E253FF4F3491FC01E654FF4FE491EE23C1
:100CE00009F43CC0222339F1233091F038F421304B
:100CF000A9F0223001F584B58F7D12C0273091F024
:100D00002830A1F02430B9F4809180008F7D03C099
:100D1000809180008F77809380000DC084B58F779D
:100D200084BD09C08091B0008F7703C08091B0006E
:100D30008F7D8093B000F0E0EE0FFF1FEA55FF4F6C
:100D4000A591B4919FB7F894611104C08C9130952E
:100D5000382302C0EC913E2B3C939FBF0895CF9364
:100D6000DF9390E0FC01E253FF4F2491FC01E65435
:100D7000FF4F8491882361F190E0880F991FFC0157
:100D8000E857FF4FC591D491FC01EA55FF4FA5915B
:100D9000B491611109C09FB7F8948881209582238E
:100DA0008883EC912E230BC0623061F49FB7F894D6
:100DB0008881322F309583238883EC912E2B2C93BE
:100DC0009FBF06C08FB7F894E8812E2B28838FBF72
:100DD000DF91CF9108958E3008F08E508770806437
:100DE00080937C0080917A00806480937A00809167
:100DF0007A0086FDFCCF809178002091790090E008
:100E0000922B08958F929F92AF92BF92CF92DF92D2
:100E1000EF92FF926B017C010E9451024B015C0139
:100E2000C114D104E104F104F1F00E945102DC018B
:100E3000CB0188199909AA09BB09883E9340A105ED
:100E4000B10570F321E0C21AD108E108F10888EE7B
:100E5000880E83E0981EA11CB11CC114D104E104CA
:100E6000F10419F7DDCFFF90EF90DF90CF90BF90A6
:100E7000AF909F908F9008958F929F92AF92BF9264
:100E8000CF92DF92EF92FF92809168029091690277
:100E90000E94500440E06CEC8091680290916902DD
:100EA0000E94FD034091600264E480916802909189
:100EB00069020E94FD0380916402882309F461C0E5
:100EC000E0916302E950E33040F4F0E0EE0FFF1FE1
:100ED000E05FFE4F8081918102C08EEE92E06C0156
:100EE000990FEE08FF0880916502882361F18091D7
:100EF0006002811128C08FB7F8948090940190907F
:100F00009501A0909601B09097018FBF80916802E3
:100F1000909169020E94AA03813099F12FB7F89449
:100F20008091940190919501A0919601B0919701C3
:100F30002FBF88199909AA09BB098C159D05AE0513
:100F4000BF0520F31EC080916102882329F060E074
:100F5000809162020E946206C701B6010E940207E8
:100F600080916102882369F061E080916202FF90C4
:100F7000EF90DF90CF90BF90AF909F908F900C94A8
:100F80006206FF90EF90DF90CF90BF90AF909F9060
:100F90008F900895CF93DF93CDB7DEB72C970FB620
:100FA000F894DEBF0FBECDBF789484B5826084BD57
:100FB00084B5816084BD85B5826085BD85B581605D
:100FC00085BD80916E00816080936E0010928100DB
:100FD0008091810082608093810080918100816096
:100FE0008093810080918000816080938000809157
:100FF000B10084608093B1008091B00081608093E3
:10100000B00080917A00846080937A0080917A00A9
:10101000826080937A0080917A00816080937A0068
:1010200080917A00806880937A001092C100E091EC
:10103000A801F091A90182E08083E091A401F091E0
:10104000A5011082E091A601F091A7018FEC8083A9
:101050001092B001E091AC01F091AD0186E0808387
:10106000E091AA01F091AB01808180618083E091E1
:10107000AA01F091AB01808188608083E091AA0190
:10108000F091AB01808180688083E091AA01F091AA
:10109000AB0180818F7D808361E08EE00E94AF068E
:1010A00061E08FE00E94AF0661E089E00E94AF0638
:1010B00060E089E00E94620661E08AE00E94AF067B
:1010C00061E08AE00E94620660E08FE00E94AF0665
:1010D00061E081E10E94AF0661E080E10E94AF061D
:1010E00060E080E10E94620664E670E080E090E0EB
:1010F0000E940207E0916802F0916902138615864A
:101100001486DF011B9633961E92EA17FB07E1F760
:10111000109266021092670201E0BE016F5F7F4F7E
:1011200080916802909169020E945B05882309F40E
:1011300065C067E0CE0101960E94920398858913ED
:10114000ECCF80916002811127C08091680290915C
:1011500069020E945004BE016F5F7F4F8091680258
:10116000909169020E94310440E064EB8091680232
:10117000909169020E94FD0380916802909169023A
:101180000E94AA03182F80916802909169020E9420
:101190005004112309F472C11091630289818031D6
:1011A00009F475C1CE0101960E942D05811718F42E
:1011B0008091630209C08981803111F48CE004C000
:1011C000CE0101960E942D058093630280916602F4
:1011D0008F5F809366028981883209F452C138F4A6
:1011E000803109F44EC1823209F097CF4AC18B3366
:1011F00009F447C1823409F090CF43C164E670E03E
:1012000080E090E00E940207809104019091050126
:101210004996909305018093040101E010E08091CC
:101220008E018111FAC010938901009388011092F8
:1012300084011092850110928601109287010E940C
:101240003C070E94DD056B017C0160938001709377
:1012500081018093820190938301A0908801B090D6
:1012600089018BE0A816B1040CF040C061E081E177
:101270000E9462068FE00E94EB068FE00E94EB0660
:10128000BC01990F880B990B0E946E0B2B013C013E
:1012900060938A0170938B0180938C0190938D01F0
:1012A00060E081E10E946206A301920160918401E5
:1012B0007091850180918601909187010E94F10CC7
:1012C00060938401709385018093860190938701D8
:1012D0008FEFA81AB80AB0928901A092880168E835
:1012E00073E180E090E00E940207B7CF20E030E099
:1012F00040E251E460918401709185018091860102
:10130000909187010E945D0D4B015C0160938A0101
:1013100070938B0180938C0190938D010E943C0708
:101320000E94DD052B013C0120E030E040EA50E462
:10133000C501B4010E94CD0B20E030E040E85AE343
:101340000E94CD0B4B015C0160910401709105017D
:10135000072E000C880B990B0E946E0BA5019401BF
:101360000E94CD0B69877A878B879C87A5019401A2
:1013700060E070E080EA90E40E94F00C9B01AC0118
:1013800069857A858B859C850E945D0D20E030E023
:1013900048EC51E40E94F00C4B015C0120E030E08D
:1013A00048EC51E4C301B2010E94F00C23EE35EA8F
:1013B0004BE95CE30E94CD0B20E030E040E85FE3C6
:1013C0000E94F10C27ED33EA40EB5FE30E94CD0B66
:1013D0009B01AC01C501B4010E94CD0B9B01AC0186
:1013E00060E070E08AE794E40E945D0D6093000184
:1013F000709301018093020190930301A301920174
:10140000C701B6010E94670B811104C081E080937F
:101410008E0131C010928E012EC00E943C070E94A6
:10142000DD05609306017093070180930801909396
:10143000090161E081E10E9462068FE00E94EB06F3
:101440008FE00E94EB06BC01990F880B990B0E945C
:101450006E0B60938A0170938B0180938C01909343
:101460008D0160E081E10E94620668E873E180E03E
:1014700090E00E9402070E949F01D1CE009360027B
:101480008BCE809167028F5F8093670246CE1D30BE
:1014900008F08ECE93CE80913502909136020E9454
:1014A000670E80913B0290913C020E94670E8CE295
:1014B00091E0909342028093410280917E0190914D
:1014C0007F018154924071F4E0915402F0915502F1
:1014D00090818091560280958923808310927F01AC
:1014E00010927E01089510929B0110929A0188EE4D
:1014F00093E0A0E0B0E080939C0190939D01A093C5
:101500009E01B0939F018AE191E0909399018093AD
:10151000980185EC90E09093A5018093A40184EC60
:1015200090E09093A7018093A60180EC90E09093C7
:10153000A9018093A80181EC90E09093AB01809386
:10154000AA0182EC90E09093AD018093AC0186EC0F
:1015500090E09093AF018093AE011092B101109290
:10156000B2011092B3011092B40160E088E00E94D1
:10157000AF06E6EDF0E0E491E0937602E2ECF0E015
:10158000E491F0E0EE0FFF1FE055FF4F859194913D
:1015900090937802809377021092810210928302D6
:1015A00010928202E1E8F2E089E792E012928E174F
:1015B0009F07E1F786E792E09093690280936802C3
:1015C00010926602109267021092600289E0809386
:1015D000630261E060936402609365021092750299
:1015E000109274021092610210924402109243020F
:1015F00088EE93E0A0E0B0E080934502909346022D
:10160000A0934702B09348028CE291E0909342028B
:1016100080934102109258021092570210925A027F
:101620001092590210925C0210925B0210925E02BC
:1016300010925D0280915F028E7F8D7F80935F02AA
:1016400086958170682783E00E94620661E083E0EE
:101650000E94AF06E1EDF0E0E491E0935102EDEB82
:10166000F0E0E491F0E0EE0FFF1FEA55FF4F8591A7
:101670009491909353028093520260E082E00E9422
:10168000AF0680915F0281FD04C061E082E00E94AC
:10169000620682E080934D02E0EDF0E0E491E09399
:1016A0004E02ECEBF0E0E491F0E0EE0FFF1FE055AE
:1016B000FF4F859194919093500280934F028BE35A
:1016C00092E00E94870485E392E00C9487040E94D4
:1016D000A90B08F481E00895E89409C097FB3EF453
:1016E00090958095709561957F4F8F4F9F4F99236F
:1016F000A9F0F92F96E9BB279395F69587957795ED
:101700006795B795F111F8CFFAF4BB0F11F460FFAC
:101710001BC06F5F7F4F8F4F9F4F16C0882311F004
:1017200096E911C0772321F09EE8872F762F05C018
:10173000662371F096E8862F70E060E02AF09A95B3
:10174000660F771F881FDAF7880F9695879597F9A8
:101750000895990F0008550FAA0BE0E8FEEF161642
:101760001706E807F907C0F012161306E407F50795
:1017700098F0621B730B840B950B39F40A2661F009
:10178000232B242B252B21F408950A2609F4A140AC
:10179000A6958FEF811D811D08950E94E00B0C948A
:1017A000510C0E94430C38F00E944A0C20F0952303
:1017B00011F00C943A0C0C94400C11240C94850CF0
:1017C0000E94620C70F3959FC1F3950F50E0551F76
:1017D000629FF001729FBB27F00DB11D639FAA2786
:1017E000F00DB11DAA1F649F6627B00DA11D661FD5
:1017F000829F2227B00DA11D621F739FB00DA11DF6
:10180000621F839FA00D611D221F749F3327A00DAF
:10181000611D231F849F600D211D822F762F6A2F4B
:1018200011249F5750409AF0F1F088234AF0EE0FB0
:10183000FF1FBB1F661F771F881F91505040A9F7DD
:101840009E3F510580F00C943A0C0C94850C5F3F40
:10185000E4F3983ED4F3869577956795B795F79519
:10186000E7959F5FC1F7FE2B880F911D9695879591
:1018700097F9089597F99F6780E870E060E0089510
:101880009FEF80EC089500240A9416161706180698
:101890000906089500240A94121613061406050674
:1018A0000895092E0394000C11F4882352F0BB0F05
:1018B00040F4BF2B11F460FF04C06F5F7F4F8F4F68
:1018C0009F4F089557FD9058440F551F59F05F3FA3
:1018D00071F04795880F97FB991F61F09F3F79F052
:1018E00087950895121613061406551FF2CF4695D4
:1018F000F1DF08C0161617061806991FF1CF869556
:101900007105610508940895E894BB276627772739
:10191000CB0197F908952F923F924F925F926F9269
:101920007F928F929F92AF92BF92CF92DF92EF926F
:10193000FF920F931F93CF93DF93CDB7DEB7CA1BF0
:10194000DB0B0FB6F894DEBF0FBECDBF09942A881B
:10195000398848885F846E847D848C849B84AA84C3
:10196000B984C884DF80EE80FD800C811B81AA8150
:10197000B981CE0FD11D0FB6F894DEBF0FBECDBF1B
:10198000ED01089597FB072E16F4009407D077FD1C
:1019900009D00E94D60C07FC05D03EF490958195A5
:1019A0009F4F0895709561957F4F0895AA1BBB1BAB
:1019B00051E107C0AA1FBB1FA617B70710F0A61B4F
:1019C000B70B881F991F5A95A9F780959095BC0170
:1019D000CD010895EE0FFF1F0590F491E02D0994BD
:1019E0005058BB27AA270E94080D0C94510C0E9446
:1019F000430C38F00E944A0C20F039F49F3F19F450
:101A000026F40C94400C0EF4E095E7FB0C943A0C91
:101A1000E92F0E94620C58F3BA1762077307840714
:101A2000950720F079F4A6F50C94840C0EF4E0955B
:101A30000B2EBA2FA02D0B01B90190010C01CA0188
:101A4000A0011124FF27591B99F0593F50F4503E33
:101A500068F11A16F040A22F232F342F4427585F25
:101A6000F3CF469537952795A795F0405395C9F73D
:101A70007EF41F16BA0B620B730B840BBAF09150F5
:101A8000A1F0FF0FBB1F661F771F881FC2F70EC094
:101A9000BA0F621F731F841F48F487957795679567
:101AA000B795F7959E3F08F0B0CF9395880F08F053
:101AB0009927EE0F9795879508950E94710D0C94C4
:101AC000510C0E944A0C58F00E94430C40F029F43B
:101AD0005F3F29F00C943A0C51110C94850C0C9436
:101AE000400C0E94620C68F39923B1F3552391F3E3
:101AF000951B550BBB27AA2762177307840738F07D
:101B00009F5F5F4F220F331F441FAA1FA9F335D0D9
:101B10000E2E3AF0E0E832D091505040E695001C8D
:101B2000CAF72BD0FE2F29D0660F771F881FBB1F47
:101B3000261737074807AB07B0E809F0BB0B802D25
:101B4000BF01FF2793585F4F3AF09E3F510578F051
:101B50000C943A0C0C94850C5F3FE4F3983ED4F35C
:101B6000869577956795B795F7959F5FC9F7880F25
:101B7000911D9695879597F90895E1E0660F771F77
:101B8000881FBB1F621773078407BA0720F0621B08
:101B9000730B840BBA0BEE1F88F7E09508950F9333
:101BA0001F93CF93DF938230910510F482E090E091
:101BB000E0918602F091870220E030E0A0E0B0E002
:101BC000309719F1408151810281138148175907DB
:101BD000C8F08417950769F4109731F012960C93AA
:101BE000129713961C9327C00093860210938702C6
:101BF00022C02115310519F04217530718F49A0134
:101C0000BD01EF01DF01F801DBCF21153105F9F04E
:101C1000281B390B2430310580F48A819B816115A2
:101C2000710521F0FB019383828304C090938702A6
:101C300080938602FE01329644C0FE01E20FF31F3C
:101C40008193919322503109398328833AC020919E
:101C5000840230918502232B41F420910C013091B4
:101C60000D01309385022093840220910A01309166
:101C70000B012115310541F42DB73EB740910E01FE
:101C800050910F01241B350BE0918402F0918502E5
:101C9000E217F307A0F42E1B3F0B2817390778F043
:101CA000AC014E5F5F4F2417350748F04E0F5F1FA2
:101CB00050938502409384028193919302C0E0E0A7
:101CC000F0E0CF01DF91CF911F910F910895CF9355
:101CD000DF93009709F481C0FC01329713821282CE
:101CE000A0918602B0918702109781F42081318102
:101CF000820F931F209184023091850228173907A3
:101D000051F5F0938502E093840267C0ED0120E075
:101D100030E0CE17DF0740F44A815B819E01411518
:101D20005105F1F0EA01F5CFD383C283408151819F
:101D3000840F951FC817D90759F488819981840F9A
:101D4000951F0296918380838A819B8193838283EE
:101D50002115310529F4F0938702E09386023DC0F6
:101D6000E901FB83EA8349915991C40FD51FEC1710
:101D7000FD0761F480819181840F951F0296E9012E
:101D800099838883828193819B838A83E0E0F0E05A
:101D900012968D919C911397009719F0FD01DC012B
:101DA000F7CF8D919C9111979D012E5F3F4F820F30
:101DB000931F20918402309185022817390769F416
:101DC000309729F4109287021092860202C0138283
:101DD0001282B0938502A0938402DF91CF9108957F
:101DE000A0E0B0E0E6EFFEE00C948F0CEC01009771
:101DF00021F4CB010E94CF0DB4C0FC01E60FF71F08
:101E00009C0122503109E217F30708F4A8C0D90158
:101E10000D911C91119706171707B0F005301105A9
:101E200008F49BC0C80104978617970708F495C06B
:101E300002501109061B170B019311936D937C93AC
:101E4000CF010E94670E89C05B01A01AB10A4C0144
:101E5000800E911EA0918602B0918702612C712C98
:101E6000E12CF12C109709F446C08D919C911197AB
:101E7000A815B905B1F56C0142E0C40ED11CCA1415
:101E8000DB0478F14C018A189B08640142E0C40E1F
:101E9000D11C1296BC9012971396AC91B5E0CB165C
:101EA000D10440F0B282A38391828082D9016D93E4
:101EB0007C9309C00E5F1F4F800F911FF901918322
:101EC0008083EB2DFA2FE114F10431F0D701139642
:101ED000FC93EE93129741C0F0938702E093860241
:101EE0003CC06816790608F43C017D0112960D90FD
:101EF000BC91A02DB7CF8091840290918502881665
:101F00009906E1F466167706C8F480910A0190916B
:101F10000B01009741F48DB79EB740910E0150918F
:101F20000F01841B950BE817F907C8F4F09385029D
:101F3000E0938402F901718360830FC0CB010E949A
:101F4000CF0D7C01009759F0A801BE010E94BB0F84
:101F5000CE010E94670EC70104C0CE0102C080E01E
:101F600090E0CDB7DEB7EEE00C94AB0C81E090E0F2
:101F7000F8940C94CB0FFB01DC0102C001900D9290
:101F800041505040D8F70895FB01DC0101900D92BB
:101F90000020E1F7089510E0C2E7D0E004C0FE01A0
:101FA0000E94EA0C2196C337D107C9F7F894FFCFF6
:101FB000EC513840E8030000204100008802200076
:101FC0005E00BC0077010000000030019D00C700EA
:101FD0007D01F800D600EA0000000000C2019D006B
:0C1FE0004C02C10112022A02A9010000FB
:00000001FF
